:020000040800F2
:100000006804002065430008C5430008C543000894
:10001000C5430008C5430008C543000800000000B0
:10002000000000000000000000000000C5430008C0
:10003000C543000800000000C5430008C543000890
:10004000C5430008C5430008C5430008C543000870
:10005000C5430008C5430008C5430008C543000860
:10006000C5430008C5430008C5430008C543000850
:10007000C5430008C5430008C5430008C543000840
:10008000C5430008C5430008C5430008C543000830
:10009000C5430008C5430008C5430008D90500084A
:1000A000C5430008C5430008C5430008C543000810
:1000B000C5430008310A000859080008C543000874
:1000C000C5430008C5430008C5430008C5430008F0
:1000D000C5430008C5430008C5430008C5430008E0
:1000E000C5430008C5430008C543000800000000E0
:1000F0000000000000000000000000000000000000
:0C01000000000000000000005FF808F1A3
:10010C0010B5054C237833B9044B13B10448AFF345
:10011C0000800123237010BD680400200000000043
:10012C003453000808B5034B1BB103490348AFF324
:10013C00008008BD000000006C040020345300084F
:10014C0080B582B000AF02F05DF84FF4803002F061
:10015C0087F802F0CBF80346FB71FB79012B23D116
:10016C00002002F0C5F9002002F03EFA4FF4806046
:10017C0002F000FA4FF4E0114FF4803002F0DEF898
:10018C00012002F055F900BF392002F06BFB034649
:10019C00002BF9D0022002F06DF900BF02F09AF9A1
:1001AC000346082BFAD100E0FEE70837BD4680BDB8
:1001BC0080B592B000AF002002F052FA012140F25B
:1001CC00092002F0C7FA0121012002F07FFA012375
:1001DC003B610023FB600023FB62344BBB604FF49C
:1001EC0080633B628023BB6120237B62304B7B604E
:1001FC004FF48073FB6100237B614FF40053BB62AF
:10020C003B1D19462B4801F0FBF90121294801F04F
:10021C0031FB0223A7F84430002387F8473007F15D
:10022C0044031946244801F0F7FC012387F83530C4
:10023C000023FB634FF46023BB6300233B63012368
:10024C0087F84030012387F8343007F13003194622
:10025C001A4800F0AFFD072301220921174801F0CD
:10026C0077F80121154800F0D9FE0121134800F060
:10027C001DFF124800F05CFF00BF104800F086FF25
:10028C000346002BF9D10D4800F0B6FF00BF0B4818
:10029C0000F0E0FF0346002BF9D10121074801F0E3
:1002AC000FF800BF4837BD4680BD00BF00000020DE
:1002BC004C24014008000240000C01400024014085
:1002CC0080B582B000AFFFF73BFFFFF771FF00F086
:1002DC00D5F80121082002F03DFA0123BB80482308
:1002EC00FB710223BB713B1D19461B4801F094FCAA
:1002FC000121194801F09CFE184B1B889BB2C82B9E
:10030C0026D900F013FD0346002B16D1012112480B
:10031C0001F0BCFD0346002B03D0002000F03AFD99
:10032C0002E0012000F036FD00F094FB03469BB286
:10033C00184600F09FFB00F021FD084B1B889BB278
:10034C00184600F04FFC0346184600F071FCD3E74A
:10035C00002000F06DFCCFE7000C014000000020F5
:10036C0080B586B000AF786000237B6100233B61D1
:10037C000F23FB607B68DB78002B09D07B68DB7874
:10038C00012B05D0364B374A7521374804F018F845
:10039C007B685B780F2B05D9344B324A7621324877
:1003AC0004F00EF87B689B780F2B05D9304B2D4A47
:1003BC0077212D4804F004F87B68DB78002B3AD0C9
:1003CC002C4BDB68DB431B0A03F007037B617B6967
:1003DC00C3F104033B61FA687B6922FA03F3FB6007
:1003EC007B685B781A463B6902FA03F37B617B6896
:1003FC009B781A46FB6813407A6913437B617B69CF
:10040C001B017B611C4A7B681B787969C9B2134458
:10041C000A4683F800237B681B7803F01F031649F8
:10042C007A6812785209D2B21046012202FA03F30A
:10043C0041F820300FE07B681B7803F01F030E4956
:10044C007A6812785209D2B2104601229A4000F111
:10045C00200341F8232000BF1837BD4680BD00BFE4
:10046C0088530008386C000878530008C4530008FF
:10047C001454000800ED00E000E100E080B500AF8E
:10048C0000F064F800F02CF9602200210A4803F017
:10049C0007FB60220421084803F002FB60220821BC
:1004AC00054803F0FDFA00F0A3F900F089FA00F01A
:1004BC0005F800BF80BD00BF002C014080B500AF27
:1004CC00002000F0B5FB00220021194803F0C0F910
:1004DC0000220421164803F0BBF90022082114481D
:1004EC0003F0B6F900220021114803F063FA002250
:1004FC0004210F4803F05EFA002208210C4803F097
:10050C0059FA00210B4802F0F3FF00210A4802F0CF
:10051C00EFFF0A4B00221A80094B00221A80094B6C
:10052C0000221A70084B00221A7000BF80BD00BF59
:10053C00002C014000040040000800409204002000
:10054C0094040020840400209604002080B584B01C
:10055C0000AF0121092002F0FDF84FF46073BB815C
:10056C004823FB730123BB7307F10C031946164890
:10057C0001F052FB17233B7000237B700023BB70F0
:10058C000123FB703B461846FFF7EAFE07210120CA
:10059C0001F09EFD0821012001F09AFD09210120A6
:1005AC0001F096FD4FF460737B600123BB72002356
:1005BC003B7210237B723B1D184601F0DBF900BF28
:1005CC001037BD4680BD00BF000C014098B500AF90
:1005DC00802001F089FA03461C464FF4807001F02C
:1005EC0083FA03462343DCB24FF4007001F07CFA2B
:1005FC0003462343DBB2002B62D0802001F0EAFAE1
:10060C004FF4807001F0E6FA4FF4007001F0E2FA5A
:10061C0000F020FA03461A462A4B1A702A4B1B8804
:10062C009AB22A4B1A802A4803F0AAFB03461A46B0
:10063C00254B1A800121264802F05AFF002124483C
:10064C0003F020FB00F07EFB0346002B0ED00021B4
:10065C00204803F017FB1C4B1B889BB21D4A5B09FF
:10066C009BB2938501211B4802F042FF154B1B786E
:10067C00DBB2002B14BF01230023DAB2114B1B7821
:10068C00DBB2062B94BF01230023DBB21340DBB299
:10069C00002B09D00B4B1B78DBB2184600F00AFB81
:1006AC0003461A460C4B1A700C4B1B78DBB2002B12
:1006BC0006D1044B1B78DBB29BB2184600F0DAF97A
:1006CC0000BF98BD8E0400209204002094040020EA
:1006DC0000040040000800408F0400209604002015
:1006EC0080B58CB000AF01210C2002F033F84FF430
:1006FC006043BB85032387F82E30182387F82F30EF
:10070C0007F12C031946374801F086FA4FF4E063E1
:10071C00BB85032387F82E30182387F82F3007F179
:10072C002C031946304801F077FA01214FF4006090
:10073C0002F010F800233B8400237B8441F29413D5
:10074C00BB840023FB84002387F8283007F12003A7
:10075C001946264802F0ECF800233B8201237B82E9
:10076C000423BB820023FB8200233B8300237B8377
:10077C000023BB830023FB8307F1100319461B489E
:10078C0002F0E0F907F110031946184802F04AFB91
:10079C0007F110031946154802F090FC4FF4006362
:1007AC003B804FF480637B800023BB804823FB801D
:1007BC004FF48043BB814FF480533B8100237B81FA
:1007CC003B461946094802F0B1FD0121074802F0E9
:1007DC008FFE0121054802F029FF00BF3037BD46CE
:1007EC0080BD00BF000C014000080140002C0140FE
:1007FC0080B584B000AF0121042001F0EFFF3B1D58
:10080C00184602F05BFE0023FB804823BB800023CC
:10081C003B813B1D19460C4802F08AF8012201214C
:10082C00094802F061FF1E233B7000237B700023FC
:10083C00BB700123FB703B461846FFF791FD00BFD0
:10084C001037BD4680BD00BF0008004080B582B0A7
:10085C0000AF0121524803F00FFB0346002B00F0C0
:10086C009B8001214E4803F0C1FB4E4B1B78DBB241
:10087C00002B2FD1602200214B4803F011F90122EB
:10088C000021494802F0E4FF04220021464803F00D
:10089C0091F860220421444803F002F9012204215A
:1008AC00414802F0D5FF042204213F4803F082F8AE
:1008BC00602208213C4803F0F3F8012208213A4851
:1008CC0002F0C6FF04220821374803F073F8354BB9
:1008DC0001221A70354B1B889BB21846344B1B787F
:1008EC00DBB21946334A0B465B000B4413441B78AE
:1008FC0000FB03F3304AA2FB0323DB09FB802B4BE9
:10090C001B889BB218462A4B1B78DBB21946294A26
:10091C000B465B000B44134401331B7800FB03F3C1
:10092C00254AA2FB0323DB09BB80204B1B889BB20F
:10093C0018461F4B1B78DBB219461E4A0B465B0050
:10094C000B44134402331B7800FB03F31A4AA2FB3B
:10095C000323DB097B80194B1B78DBB2002B06D100
:10096C007A88B988FB88184600F084F905E0BA88C3
:10097C007988FB88184600F07DF90D4B1B78DBB2AB
:10098C000133DAB20A4B1A70094B1B78DBB2BF2B5E
:10099C0002D9074B00221A7000BF0837BD4680BD34
:1009AC000008004096040020002C01409004002018
:1009BC008F040020A46C00088180808085040020B6
:1009CC0080B584B000AF0121022001F007FF3B1D70
:1009DC00184602F073FD0023FB804823BB804FF6C2
:1009EC00FF733B813B1D19460D4801F0A1FF01220D
:1009FC0001210B4802F078FE0021094803F042F96E
:100A0C001D233B7000237B700023BB700123FB7004
:100A1C003B461846FFF7A4FC00BF1037BD4680BD0F
:100A2C000004004080B500AF0121094803F024FA0E
:100A3C000346002B0AD00121054803F0D7FA00F039
:100A4C0081F90346002B01D0FFF738FD00BF80BDB4
:100A5C000004004080B500AF054801F0A7FA03463A
:100A6C00DB11DBB203F00703DBB2184680BD00BF1D
:100A7C00000C014080B582B000AF0346FB80544BA4
:100A8C001B78DBB2002B0CD1FA8813465B001344A5
:100A9C005B00504A1A44504B1068186092889A8038
:100AAC000BE0FA8813465B0013445B004B4A1A4474
:100ABC00494B1068186092889A80474B1B78002B22
:100ACC000FD060220021464802F0EAFF01220021EB
:100ADC00434802F0BDFE04220021414802F06AFFA7
:100AEC0018E0002200213E4802F0B2FE3A4B5B783F
:100AFC00002B0AD050220021394802F0D1FF0422E9
:100B0C000021374802F056FF04E00022002134484F
:100B1C0002F050FF304B9B78002B0FD06022042149
:100B2C002F4802F0BDFF012204212D4802F090FE57
:100B3C00042204212A4802F03DFF18E0002204217F
:100B4C00274802F085FE244BDB78002B0AD050227C
:100B5C000421234802F0A4FF04220421204802F0BF
:100B6C0029FF04E0002204211D4802F023FF1A4B48
:100B7C001B79002B0FD060220821194802F090FF3E
:100B8C0001220821164802F063FE042208211448B1
:100B9C0002F010FF18E000220821114802F058FE64
:100BAC000D4B5B79002B0AD0502208210C4802F027
:100BBC0077FF042208210A4802F0FCFE04E0002220
:100BCC000821074802F0F6FE00BF0837BD4680BD7D
:100BDC0085040020446C000888040020746C000814
:100BEC00002C014080B485B000AF0346FB80FB882D
:100BFC00312B01D8002314E0FB88B3F57A6F02D9AE
:100C0C0041F295130DE0FB88323B1A4641F29413E6
:100C1C0002FB03F3054AA2FB03239B0AFB60FB6860
:100C2C009BB218461437BD4680BC7047353AFC441D
:100C3C0080B483B000AF0346FB800B4B1B78DBB258
:100C4C00002B09D1094AFB889386084AFB88138735
:100C5C00064AFB88938702E0054AFB88138000BF95
:100C6C000C37BD4680BC704796040020002C014018
:100C7C009004002080B483B000AF0346FB800B4689
:100C8C00BB8013467B80094B1B78DBB2012B08D150
:100C9C00074AFB889386064ABB881387044A7B88DD
:100CAC00938700BF0C37BD4680BC7047960400206C
:100CBC00002C014080B485B000AF0346FB71174B8C
:100CCC001B78DBB2002B04D1FB79154AD35CFB817A
:100CDC0003E0FB79134AD35CFB81134B1B785BB2AB
:100CEC009AB2FB8913449BB2FB81B7F90E30BF2B30
:100CFC0004DDFB89C03B9BB2FB8107E0B7F90E30EA
:100D0C00002B03DAFB89C0339BB2FB81FB89DBB27E
:100D1C0018461437BD4680BC704700BF85040020C0
:100D2C00E46E0008EC6E00080200002080B400AFF6
:100D3C00034B1B78DBB21846BD4680BC704700BF26
:100D4C008404002080B400AF0A4B1B889BB2002B9C
:100D5C0014BF01230023DAB2074B1B889BB2002B74
:100D6C0014BF01230023DBB21340DBB21846BD468F
:100D7C0080BC7047940400209204002080B400AF23
:100D8C00034B01221A7000BFBD4680BC704700BFE8
:100D9C008404002080B483B000AF0346FB71044A86
:100DAC00FB79137000BF0C37BD4680BC704700BF89
:100DBC008504002080B584B000AF786039600023D2
:100DCC00FB600023FB727B68874A93420DD07B68E3
:100DDC00864A934209D07B68854A934205D0854B5D
:100DEC00854AE021854803F0EBFA3B681B68002B31
:100DFC0032D03B681B68B3F5803F2DD03B681B6835
:100E0C00B3F5003F28D03B681B68B3F5403F23D0B7
:100E1C003B681B68B3F5802F1ED03B681B68B3F58D
:100E2C00A02F19D03B681B68B3F5C02F14D03B68BA
:100E3C001B68B3F5E02F0FD03B681B68B3F5002F90
:100E4C000AD03B681B68B3F5102F05D06C4B6A4A6F
:100E5C00E1216A4803F0B4FA3B681B79002B09D0F6
:100E6C003B681B79012B05D0664B634AE221634832
:100E7C0003F0A6FA3B685B79002B09D03B685B79E1
:100E8C00012B05D0604B5C4AE3215C4803F098FAD7
:100E9C003B689B68002B45D03B689B68B3F5003FD3
:100EAC0040D03B689B68B3F5802F3BD03B689B6878
:100EBC00B3F5C02F36D03B689B68B3F5002F31D00B
:100ECC003B689B68B3F5202F2CD03B689B68B3F52F
:100EDC00402F27D03B689B68B3F5602F22D03B682E
:100EEC009B68002B1ED03B689B68B3F5003F19D064
:100EFC003B689B68B3F5C02F14D03B689B68B3F577
:100F0C00002F0FD03B689B68B3F5202F0AD03B68AD
:100F1C009B68B3F5402F05D03C4B374AE42137484A
:100F2C0003F04EFA3B68DB68002B0AD03B68DB68A9
:100F3C00B3F5006F05D0364B2F4AE5212F4803F04F
:100F4C003FFA3B681B7C002B03D03B681B7C102BAF
:100F5C0005D9304B284AE621284803F031FA7B6842
:100F6C005B68FB60FB6823F4702323F48073FB60E5
:100F7C003B681A683B681B791B021343FA681343DE
:100F8C00FB607B68FA685A607B689B68FB60FA6858
:100F9C00214B1340FB603B68DA683B689B681A4343
:100FAC003B685B795B001343FA681343FB607B6817
:100FBC00FA689A607B68DB6AFB60FB6823F4700359
:100FCC00FB603B681B7C013BDAB2FB7A1343FB7280
:100FDC00FB7A1B05FA681343FB607B68FA68DA62DC
:100FEC0000BF1037BD4680BD0024014000280140E1
:100FFC00003C0140F8540008F46E0008105500083D
:10100C00285500085055000888550008C45500089C
:10101C00FC55000830560008FDF7F1FF80B582B092
:10102C0000AF78600B46FB707B68194A93420ED078
:10103C007B68184A93420AD07B68174A934206D0C1
:10104C00164B174A40F22F11164803F0B9F9FB78EA
:10105C00002B09D0FB78012B06D0134B104A4FF410
:10106C009871104803F0ACF9FB78002B06D07B6824
:10107C009B6843F001027B689A6005E07B689B6883
:10108C0023F001027B689A6000BF0837BD4680BD23
:10109C000024014000280140003C0140F8540008A5
:1010AC00006F0008105500086856000880B582B023
:1010BC0000AF78600B46FB707B68174A93420AD0EE
:1010CC007B68164A934206D0154B164A4FF4A4710E
:1010DC00154803F075F9FB78002B09D0FB78012B30
:1010EC0006D0124B0F4A40F249110F4803F068F931
:1010FC00FB78002B06D07B689B6843F480727B687E
:10110C009A6005E07B689B6823F480727B689A6028
:10111C0000BF0837BD4680BD00240140003C0140A3
:10112C0088560008086F000810550008685600081B
:10113C0080B582B000AF78607B680E4A93420ED0C7
:10114C007B680D4A93420AD07B680C4A934206D0C6
:10115C000B4B0C4A40F27F110B4803F031F97B68C2
:10116C009B6843F008027B689A6000BF0837BD4655
:10117C0080BD00BF0024014000280140003C01401C
:10118C00F8540008146F00081055000880B584B09E
:10119C0000AF78600023FB737B68114A93420ED03A
:1011AC007B68104A93420AD07B680F4A934206D060
:1011BC000E4B0F4A40F28D110E4803F001F97B687B
:1011CC009B6803F00803002B02D00123FB7301E0A2
:1011DC000023FB73FB7B18461037BD4680BD00BF58
:1011EC000024014000280140003C0140F854000854
:1011FC002C6F00081055000880B582B000AF7860E5
:10120C007B680E4A93420ED07B680D4A93420AD0FB
:10121C007B680C4A934206D00B4B0C4A40F2A5114A
:10122C000B4803F0CDF87B689B6843F004027B68A5
:10123C009A6000BF0837BD4680BD00BF0024014046
:10124C0000280140003C0140F85400084C6F000895
:10125C001055000880B584B000AF78600023FB7394
:10126C007B68114A93420ED07B68104A93420AD095
:10127C007B680F4A934206D00E4B0F4A40F2B311D3
:10128C000E4803F09DF87B689B6803F00403002B69
:10129C0002D00123FB7301E00023FB73FB7B184698
:1012AC001037BD4680BD00BF00240140002801401E
:1012BC00003C0140F8540008646F00081055000809
:1012CC0080B582B000AF78600B46FB707B68194A22
:1012DC0093420ED07B68184A93420AD07B68174A17
:1012EC00934206D0164B174A40F2CD11164803F024
:1012FC0067F8FB78002B09D0FB78012B06D0134B39
:10130C00104A4FF4E771104803F05AF8FB78002BA1
:10131C0006D07B689B6843F4A0027B689A6005E06A
:10132C007B689B6823F4A0027B689A6000BF083737
:10133C00BD4680BD0024014000280140003C014016
:10134C00F8540008806F0008105500086856000813
:10135C0080B584B000AF7860084611461A46034643
:10136C00FB700B46BB7013467B700023FB600023A5
:10137C00BB607B68854A93420ED07B68844A93425B
:10138C000AD07B68834A934206D0834B834A40F24F
:10139C005321834803F014F8FB78002B39D0FB78E9
:1013AC00012B36D0FB78022B33D0FB78032B30D0BB
:1013BC00FB78042B2DD0FB78052B2AD0FB78062B41
:1013CC0027D0FB78072B24D0FB78082B21D0FB7877
:1013DC00092B1ED0FB780A2B1BD0FB780B2B18D0BB
:1013EC00FB780C2B15D0FB780D2B12D0FB780E2B29
:1013FC000FD0FB780F2B0CD0FB78102B09D0FB787F
:10140C00112B06D0674B654A4FF41571644802F0F6
:10141C00D7FFBB78002B02D0BB78102B06D9624BC0
:10142C005E4A40F255215E4802F0CAFF7B78002BE1
:10143C001BD07B78012B18D07B78022B15D07B78B6
:10144C00032B12D07B78042B0FD07B78052B0CD080
:10145C007B78062B09D07B78072B06D0534B4F4A51
:10146C0040F256214E4802F0ABFFFB78092B23D9F2
:10147C007B68DB68FB60FB78A3F10A0213465B0018
:10148C001344072202FA03F3BB60BB68DB43FA6820
:10149C001340FB607978FB78A3F10A0213465B00DA
:1014AC00134401FA03F3BB60FA68BB681343FB6097
:1014BC007B68FA68DA601EE07B681B69FB60FA786F
:1014CC0013465B001344072202FA03F3BB60BB68AC
:1014DC00DB43FA681340FB607978FA7813465B00BB
:1014EC00134401FA03F3BB60FA68BB681343FB6057
:1014FC007B68FA681A61BB78062B21D87B685B6B1A
:10150C00FB60BB785A1E13469B0013441F2202FA41
:10151C0003F3BB60BB68DB43FA681340FB60F978EC
:10152C00BB785A1E13469B00134401FA03F3BB60AD
:10153C00FA68BB681343FB607B68FA685A635AE02D
:10154C00BB780C2B34D87B681B6BFB60BB78DA1F29
:10155C0013469B0013441F2202FA03F3BB60BB68C3
:10156C00DB43FA681340FB60F978BB78DA1F13464B
:10157C009B00134401FA03F3BB60FA68BB68134386
:10158C00FB607B68FA681A6335E000BF00240140F9
:10159C0000280140003C0140F85400089C6F0008F2
:1015AC0010550008D8560008F456000810570008CB
:1015BC007B68DB6AFB60BB78A3F10D0213469B00D2
:1015CC0013441F2202FA03F3BB60BB68DB43FA68C7
:1015DC001340FB60F978BB78A3F10D0213469B0016
:1015EC00134401FA03F3BB60FA68BB681343FB6056
:1015FC007B68FA68DA6200BF1037BD4680BD00BF59
:10160C0080B584B000AF786039600023FB607B68E4
:10161C00804A934231D07B687F4A93422DD07B68BD
:10162C007E4A934229D07B687D4A934225D07B68C1
:10163C007C4A934221D07B687B4A93421DD07B68C5
:10164C007A4A934219D07B68794A934215D07B68C9
:10165C00784A934211D07B68774A93420DD07B68CD
:10166C00764A934209D07B68754A934205D0754BF4
:10167C00754ACF21754802F0A3FE3B689B68102B7E
:10168C0009D03B689B68002B05D0714B6E4AD0216A
:10169C006E4802F095FE3B68DB68002B04D03B687B
:1016AC00DB68B3F5803F05D36A4B674AD1216748A5
:1016BC0002F086FE3B681B69402B09D03B681B6916
:1016CC00002B05D0644B604AD221604802F078FEB2
:1016DC003B685B69802B09D03B685B69002B05D0AC
:1016EC005E4B594AD321594802F06AFE3B689B690C
:1016FC00002B0FD03B689B69B3F5807F0AD03B6809
:10170C009B69B3F5007F05D0554B4F4AD4214F4808
:10171C0002F056FE3B68DB69002B0FD03B68DB699F
:10172C00B3F5806F0AD03B68DB69B3F5006F05D069
:10173C004C4B454AD521454802F042FE3B681B6A9A
:10174C00202B09D03B681B6A002B05D0464B3E4A28
:10175C00D6213E4802F034FE3B685B6AB3F5405F2D
:10176C0013D03B685B6AB3F5005F0ED03B685B6AD5
:10177C00B3F5805F09D03B685B6A002B05D03B4B0F
:10178C00314AD721314802F01BFE3B689B6AB3F506
:10179C00804F09D03B689B6A002B05D0344B2A4AFA
:1017AC00D8212A4802F00CFE7B681B68FB60FB68A2
:1017BC0023F4FF4323F07003FB603B689A683B689B
:1017CC001B6A1A433B681B691A433B685B691A43E3
:1017DC003B689B691A433B68DB691A433B685B6A4D
:1017EC001A433B689B6A1343FA681343FB607B689C
:1017FC00FA681A603B68DA687B685A603B681A685A
:10180C007B689A603B685A687B68DA6000BF103767
:10181C00BD4680BD080002401C0002403000024062
:10182C0044000240580002406C000240800002401C
:10183C00080402401C0402403004024044040240EC
:10184C0058040240A8580008B86F0008CC5800088B
:10185C00E4580008085900083C5900087C59000855
:10186C00B4590008F8590008345A00085C5A0008AA
:10187C008C5A000880B582B000AF78600B46FB70C4
:10188C007B682C4A934232D07B682B4A93422ED0F1
:10189C007B682A4A93422AD07B68294A934226D0F5
:1018AC007B68284A934222D07B68274A93421ED0F9
:1018BC007B68264A93421AD07B68254A934216D0FD
:1018CC007B68244A934212D07B68234A93420ED001
:1018DC007B68224A93420AD07B68214A934206D005
:1018EC00204B214A40F22911204802F069FDFB7877
:1018FC00002B09D0FB78012B06D01D4B1A4A4FF454
:10190C0095711A4802F05CFDFB78002B06D07B68C1
:10191C001B6843F001027B681A6006E07B681A685A
:10192C004FF6FE7313407A68136000BF0837BD464C
:10193C0080BD00BF080002401C0002403000024085
:10194C0044000240580002406C00024080000240FB
:10195C00080402401C0402403004024044040240CB
:10196C0058040240A8580008C46F0008CC5800085E
:10197C00B85A000880B584B000AF78600023FB60D3
:10198C007B681B79002B09D07B681B79042B05D055
:10199C004E4B4F4A6B214F4802F012FD7B685B792E
:1019AC00082B0DD07B685B790C2B09D07B685B799D
:1019BC00102B05D0484B464A6C21464802F000FDDE
:1019CC007B681B681B0D1B05002B03D17B681B68F8
:1019DC00002B05D1414B3E4A6D213E4802F0F0FCF4
:1019EC007B689B79002B09D07B689B79012B05D0F8
:1019FC003B4B374A6E21374802F0E2FC394BFB6017
:101A0C007B689B79002B4FD0364B1A687B681B6820
:101A1C00DB43344913400B60324B5A687B681B68BC
:101A2C00DB43304913404B607B681B791A46FB68DB
:101A3C001344FB60FB6819687B681A68FB680A43EF
:101A4C001A60284B9A687B681B68DB432549134056
:101A5C008B60244BDA687B681B68DB43214913409D
:101A6C00CB607B685B79102B0ED11E4B9A687B6820
:101A7C001B681C4913438B601A4BDA687B681B6824
:101A8C0018491343CB601DE0164BFB607B685B79F8
:101A9C001A46FB681344FB60FB6819687B681A687C
:101AAC00FB680A431A600DE07B681B791A46FB68D9
:101ABC001344FB60FB6819687B681B68DA43FB689E
:101ACC000A401A6000BF1037BD4680BD645B000839
:101ADC00CC6F0008905B0008A85B0008D85B00087E
:101AEC00045C00080004014080B584B000AF78604D
:101AFC000023FB730023BB607B68012B4AD07B68FF
:101B0C00022B47D07B68042B44D07B68082B41D038
:101B1C007B68102B3ED07B68202B3BD07B68402B06
:101B2C0038D07B68802B35D07B68B3F5807F31D083
:101B3C007B68B3F5007F2DD07B68B3F5806F29D01F
:101B4C007B68B3F5006F25D07B68B3F5805F21D03F
:101B5C007B68B3F5005F1DD07B68B3F5804F19D05F
:101B6C007B68B3F5004F15D07B68B3F5803F11D07F
:101B7C007B68B3F5003F0DD07B68B3F5802F09D09F
:101B8C007B68B3F5002F05D00E4B0F4AE6210F48AA
:101B9C0002F016FC0E4B1B687A681340BB600C4BB2
:101BAC005A697B681340002B05D0BB68002B02D010
:101BBC000123FB7301E00023FB73FB7B18461037FA
:101BCC00BD4680BD505C0008D86F0008905B0008D3
:101BDC000004014080B582B000AF78607B681B0DBB
:101BEC001B05002B02D17B68002B05D1064B074A45
:101BFC00FD21074802F0E4FB064A7B68536100BFF5
:101C0C000837BD4680BD00BF385C0008EC6F00088B
:101C1C00905B00080004014080B588B000AF78608C
:101C2C0039600023FB6100233B610023BB6100236F
:101C3C00FB6000237B610023BB607B68864A934278
:101C4C001DD07B68854A934219D07B68844A9342A5
:101C5C0015D07B68834A934211D07B68824A9342A9
:101C6C000DD07B68814A934209D07B68804A9342AD
:101C7C0005D0804B804AB321804802F0A1FB3B6821
:101C8C00DB78002B21D03B68DB78042B1DD03B6824
:101C9C00DB78282B19D03B68DB78482B15D03B68B8
:101CAC00DB78142B11D03B68DB78102B0DD03B6804
:101CBC00DB781C2B09D03B68DB78182B05D0704BDC
:101CCC006D4AB4216D4802F07BFB3B681B88002BEE
:101CDC0005D16C4B684AB521684802F071FB3B6832
:101CEC00DB7803F00F03FB613B68DB7803F0100338
:101CFC00002B17D03B689B78012B0DD03B689B7851
:101D0C00022B09D03B689B78032B05D05E4B5A4ABB
:101D1C00BC215A4802F054FB3B689B781A46FB697D
:101D2C001343FB613B681B88DBB2002B44D07B6800
:101D3C001B687B610023BB6138E00122BB6902FA9E
:101D4C0003F3FB603B681B881A46FB6813403B613E
:101D5C003A69FB689A4226D1BB699B00FB600F2253
:101D6C00FB6802FA03F3BB60BB68DB437A69134080
:101D7C007B61FA69FB6802FA03F37A6913437B61AE
:101D8C003B68DB78282B05D10122BB699A407B6824
:101D9C005A6108E03B68DB78482B04D10122BB690F
:101DAC009A407B681A61BB690133BB61BB69072B25
:101DBC00C3D97B687A691A603B681B88FF2B46D9AC
:101DCC007B685B687B610023BB613AE0BB690833CD
:101DDC00012202FA03F3FB603B681B881A46FB687E
:101DEC0013403B613A69FB689A4227D1BB699B005F
:101DFC00FB600F22FB6802FA03F3BB60BB68DB439A
:101E0C007A6913407B61FA69FB6802FA03F37A6919
:101E1C0013437B613B68DB78282B05D1BB69083306
:101E2C0001229A407B685A613B68DB78482B05D1CC
:101E3C00BB69083301229A407B681A61BB69013384
:101E4C00BB61BB69072BC1D97B687A695A6000BF3B
:101E5C002037BD4680BD00BF00080140000C01408A
:101E6C00001001400014014000180140001C01400A
:101E7C00002001406C5C000804700008885C0008BD
:101E8C00A05C0008CC5C0008F45C000880B584B051
:101E9C0000AF78600B467B800023FB737B68384A6D
:101EAC0093421ED07B68374A93421AD07B68364ADD
:101EBC00934216D07B68354A934212D07B68344AE1
:101ECC0093420ED07B68334A93420AD07B68324AE5
:101EDC00934206D0314B324A40F21F11314802F086
:101EEC006FFA7B88012B3BD07B88022B38D07B8808
:101EFC00042B35D07B88082B32D07B88102B2FD02D
:101F0C007B88202B2CD07B88402B29D07B88802B66
:101F1C0026D07B88B3F5807F22D07B88B3F5007FF9
:101F2C001ED07B88B3F5806F1AD07B88B3F5006F19
:101F3C0016D07B88B3F5805F12D07B88B3F5005F39
:101F4C000ED07B88B3F5804F0AD07B88B3F5004F59
:101F5C0006D0154B124A4FF49071124802F030FA29
:101F6C007B689A687B881340002B02D00123FB739B
:101F7C0001E00023FB73FB7B18461037BD4680BD88
:101F8C0000080140000C0140001001400014014009
:101F9C0000180140001C0140002001406C5C00084E
:101FAC0010700008885C0008205D000880B582B0C5
:101FBC0000AF78607B68144A93421ED07B68134A4A
:101FCC0093421AD07B68124A934216D07B68114A0E
:101FDC00934212D07B68104A93420ED07B680F4A12
:101FEC0093420AD07B680E4A934206D00D4B0E4AA0
:101FFC0040F235110D4802F0E3F97B689B689BB207
:10200C0018460837BD4680BD00080140000C014051
:10201C00001001400014014000180140001C014058
:10202C00002001406C5C000828700008885C0008E7
:10203C0080B582B000AF78600B467B807B68194A14
:10204C0093421ED07B68184A93421AD07B68174A79
:10205C00934216D07B68164A934212D07B68154A7D
:10206C0093420ED07B68144A93420AD07B68134A81
:10207C00934206D0124B134A4FF4B571124802F03A
:10208C009FF97B88002B06D1104B0E4A40F26B1146
:10209C000D4802F095F97A887B681A6100BF083701
:1020AC00BD4680BD00080140000C014000100140FD
:1020BC000014014000180140001C014000200140A8
:1020CC006C5C00083C700008885C00083C5D0008F3
:1020DC0080B584B000AF03460A46FB711346BB7152
:1020EC000023FB60FB79002B18D0FB79012B15D05A
:1020FC00FB79022B12D0FB79032B0FD0FB79042B2D
:10210C000CD0FB79052B09D0FB79062B06D0384B6C
:10211C00384A40F26621384802F052F9BB79002B5C
:10212C0033D0BB79012B30D0BB79022B2DD0BB79AE
:10213C00032B2AD0BB79042B27D0BB79052B24D0B9
:10214C00BB79062B21D0BB79072B1ED0BB79082B72
:10215C001BD0BB79092B18D0BB790A2B15D0BB79B6
:10216C000B2B12D0BB790C2B0FD0BB790D2B0CD0B9
:10217C00BB790E2B09D0BB790F2B06D01F4B1D4AF8
:10218C0040F267211C4802F01BF9BB7903F00303F2
:10219C009B000F2202FA03F3FB60194ABB799B08E0
:1021AC00DBB2023352F82320FB68DB431448B979C5
:1021BC008908C9B21A408B1C40F82320104ABB79FD
:1021CC009B08DBB2023352F82320F979BB7903F078
:1021DC0003039B0001FA03F30948B9798908C9B2D2
:1021EC001A438B1C40F8232000BF1037BD4680BD1E
:1021FC00005E00084C700008885C0008A05D0008B8
:10220C000000014080B400AF134B1B68124A43F02E
:10221C0001031360104B5A680F49104B13404B606D
:10222C000D4B1B680C4A23F0847323F4803313602A
:10223C00094B1B68084A23F480231360064B5B6828
:10224C00054A23F4FE035360034B4FF41F029A60BC
:10225C0000BFBD4680BC7047001002400000FFF874
:10226C0080B582B000AF78607B68002B0ED07B68A5
:10227C00B3F5803F0AD07B68B3F5802F06D0174B9F
:10228C00174A4FF48971174802F09AF8164B1B68DD
:10229C00154A23F480331360134B1B68124A23F442
:1022AC00802313607B68B3F5803F04D07B68B3F563
:1022BC00802F07D00DE00C4B1B680B4A43F4803386
:1022CC00136006E0084B1B68074A43F4A023136015
:1022DC0000BF00BF0837BD4680BD00BF645E00086C
:1022EC0060700008785E00080010024080B582B073
:1022FC0000AF00233B600023FB710023BB71312036
:10230C0000F0B0FA0346BB713B6801333B603B689D
:10231C00B3F5A06F02D0BB79002BF0D0312000F0C8
:10232C00A1FA0346002B02D00123FB7101E000232C
:10233C00FB71FB7918460837BD4680BD80B584B06B
:10234C0000AF786039600023FB607B68002B0ED0F7
:10235C007B68B3F5803F0AD07B68B3F5403F06D06D
:10236C002E4B2F4A4FF4C0712E4802F029F83B68CF
:10237C00002B3ED03B68B3F5802F3AD03B68B3F5C9
:10238C00002F36D03B68B3F5402F32D03B68B3F505
:10239C00801F2ED03B68B3F5A01F2AD03B68B3F545
:1023AC00C01F26D03B68B3F5E01F22D03B68B3F5C5
:1023BC00001F1ED03B68B3F5101F1AD03B68B3F555
:1023CC00201F16D03B68B3F5301F12D03B68B3F515
:1023DC00401F0ED03B68B3F5501F0AD03B68B3F5D5
:1023EC00601F06D0104B0E4A40F281110D4801F0CF
:1023FC00E7FF0E4B5B68FB60FB6823F47C13FB6010
:10240C007A683B681343FA681343FB60074AFB681E
:10241C00536000BF1037BD4680BD00BFE05E0008B2
:10242C0070700008785E0008045F0008001002401D
:10243C0080B582B000AF0346FB71FB79002B09D04D
:10244C00FB79012B06D0074B074A40F29511074840
:10245C0001F0B6FF064AFB79136000BF0837BD4692
:10246C0080BD00BFC05E000880700008785E000868
:10247C006000424280B584B000AF78600023FB60FE
:10248C007B68002B0CD07B68012B09D07B68022B5E
:10249C0006D00C4B0C4A40F239210C4801F090FF4D
:1024AC000B4B5B68FB60FB6823F00303FB60FA6873
:1024BC007B681343FB60064AFB68536000BF103710
:1024CC00BD4680BD205F00088C700008785E000857
:1024DC000010024080B400AF044B5B68DBB203F029
:1024EC000C03DBB21846BD4680BC7047001002409E
:1024FC0080B584B000AF78600023FB607B68002B54
:10250C001ED07B68802B1BD07B68902B18D07B68EF
:10251C00A02B15D07B68B02B12D07B68C02B0FD0B2
:10252C007B68D02B0CD07B68E02B09D07B68F02B20
:10253C0006D00C4B0C4A40F265210C4801F040FFD0
:10254C000B4B5B68FB60FB6823F0F003FB60FA68E5
:10255C007B681343FB60064AFB68536000BF10376F
:10256C00BD4680BD485F0008A0700008785E00087A
:10257C000010024080B584B000AF78600023FB608F
:10258C007B68002B16D07B68B3F5806F12D07B680C
:10259C00B3F5A06F0ED07B68B3F5C06F0AD07B6823
:1025AC00B3F5E06F06D00C4B0C4A40F27F210C487F
:1025BC0001F006FF0B4B5B68FB60FB6823F4E063E8
:1025CC00FB60FA687B681343FB60064AFB68536048
:1025DC0000BF1037BD4680BD605F0008B0700008BA
:1025EC00785E00080010024080B584B000AF7860BF
:1025FC000023FB607B68002B16D07B68B3F5806FE3
:10260C0012D07B68B3F5A06F0ED07B68B3F5C06FAA
:10261C000AD07B68B3F5E06F06D00D4B0D4A40F243
:10262C0099210D4801F0CCFE0C4B5B68FB60FB68FC
:10263C0023F46053FB607B68DB00FA681343FB6098
:10264C00064AFB68536000BF1037BD4680BD00BF13
:10265C00605F0008C0700008785E0008001002403F
:10266C0080B584B000AF78600023FB607B68002BE2
:10267C0012D07B68B3F5804F0ED07B68B3F5004F5A
:10268C000AD07B68B3F5404F06D00C4B0C4A40F295
:10269C0003310C4801F094FE0B4B5B68FB60FB684C
:1026AC0023F44043FB60FA687B681343FB60064AE3
:1026BC00FB68536000BF1037BD4680BDB45F000897
:1026CC00D0700008785E00080010024080B582B01F
:1026DC0000AF78600B46FB707B6823F4AA6323F091
:1026EC000703002B02D17B68002B06D1144B154A33
:1026FC0040F22C41144801F063FEFB78002B09D00A
:10270C00FB78012B06D0114B0E4A40F22D410E489E
:10271C0001F056FEFB78002B06D00D4B5A690C4984
:10272C007B6813434B6106E0094B5A697B68DB43BA
:10273C00074913404B6100BF0837BD4680BD00BF41
:10274C000C600008E4700008785E0008C05E0008A9
:10275C000010024080B582B000AF78600B46FB7071
:10276C007A68184B1340002B02D17B68002B06D1E2
:10277C00154B164A40F24B41154801F021FEFB78EF
:10278C00002B09D0FB78012B06D0124B0F4A40F2DC
:10279C004C410F4801F014FEFB78002B06D00E4B79
:1027AC009A690D497B6813438B6106E00A4B9A6961
:1027BC007B68DB43084913408B6100BF0837BD467B
:1027CC0080BD00BF0200C0FF30600008FC70000834
:1027DC00785E0008C05E00080010024080B582B030
:1027EC0000AF78600B46FB707A68184B1340002BD7
:1027FC0002D17B68002B06D1154B164A40F26A4178
:10280C00154801F0DDFDFB78002B09D0FB78012B7E
:10281C0006D0124B0F4A40F26B410F4801F0D0FD2D
:10282C00FB78002B06D00E4BDA690D497B681343FD
:10283C00CB6106E00A4BDA697B68DB43084913403D
:10284C00CB6100BF0837BD4680BD00BF003601819B
:10285C005460000814710008785E0008C05E00081F
:10286C000010024080B586B000AF0346FB71002318
:10287C00FB6000237B610023FB74FB79212B24D0AC
:10288C00FB79312B21D0FB79392B1ED0FB79412BD5
:10289C001BD0FB79612B18D0FB797A2B15D0FB79E7
:1028AC007B2B12D0FB797C2B0FD0FB797D2B0CD0A2
:1028BC00FB797E2B09D0FB797F2B06D0184B194A5C
:1028CC0040F23551184801F07BFDFB795B09DBB216
:1028DC00FB60FB68012B03D1144B1B687B6109E087
:1028EC00FB68022B03D1114B1B6A7B6102E00F4B7F
:1028FC005B6A7B61FB7903F01F03FB607A69FB6801
:10290C0022FA03F303F00103002B02D00123FB7422
:10291C0001E00023FB74FB7C18461837BD4680BDD4
:10292C008C6000082C710008785E000800100240D2
:10293C0080B584B000AF786039600023FB817B6880
:10294C006B4A934245D07B68B3F1804F41D07B6892
:10295C00684A93423DD07B68674A934239D07B6882
:10296C00664A934235D07B68654A934231D07B6886
:10297C00644A93422DD07B68634A934229D07B688A
:10298C00624A934225D07B68614A934221D07B688E
:10299C00604A93421DD07B685F4A934219D07B6892
:1029AC005E4A934215D07B685D4A934211D07B6896
:1029BC005C4A93420DD07B685B4A934209D07B689A
:1029CC005A4A934205D05A4B5A4AE8215A4801F0C8
:1029DC00F7FC3B685B88002B15D03B685B88102BA1
:1029EC0011D03B685B88202B0DD03B685B88402B5B
:1029FC0009D03B685B88602B05D0504B4D4AE921D0
:102A0C004D4801F0DDFC3B68DB88002B0FD03B68A8
:102A1C00DB88B3F5807F0AD03B68DB88B3F5007F99
:102A2C0005D0474B434AEA21434801F0C9FC7B6877
:102A3C001B88FB817B682E4A934213D07B68324AF9
:102A4C0093420FD07B68B3F1804F0BD07B68294A3F
:102A5C00934207D07B68284A934203D07B68274A6D
:102A6C00934208D1FB8923F07003FB813B685A88A1
:102A7C00FB891343FB817B68214A93420CD07B6812
:102A8C00204A934208D0FB8923F44073FB813B68B6
:102A9C00DA88FB891343FB817B68FA891A803B68CF
:102AAC009A887B689A853B681A887B681A857B684C
:102ABC000F4A93420FD07B68134A93420BD07B682A
:102ACC00184A934207D07B68174A934203D07B681D
:102ADC00164A934204D13B681B7A9AB27B681A86D9
:102AEC007B6801229A8200BF1037BD4680BD00BFB3
:102AFC00002C01400004004000080040000C004085
:102B0C00001000400014004000340140004C014013
:102B1C00005001400054014000180040001C0040CF
:102B2C0000200040004001400044014000480140AA
:102B3C00D460000840710008EC60000804610008D3
:102B4C004461000880B584B000AF78603960002320
:102B5C007B810023FB810023BB817B687E4A9342EF
:102B6C003ED07B68B3F1804F3AD07B687B4A93426E
:102B7C0036D07B687A4A934232D07B68794A93424A
:102B8C002ED07B68784A93422AD07B68774A93424E
:102B9C0026D07B68764A934222D07B68754A934252
:102BAC001ED07B68744A93421AD07B68734A934256
:102BBC0016D07B68724A934212D07B68714A93425A
:102BCC000ED07B68704A93420AD07B686F4A93425E
:102BDC0006D06F4B6F4A40F21D116F4801F0F0FBAD
:102BEC003B681B88002B1AD03B681B88102B16D017
:102BFC003B681B88202B12D03B681B88302B0ED0D7
:102C0C003B681B88602B0AD03B681B88702B06D056
:102C1C00624B604A4FF48F715F4801F0D1FB3B6807
:102C2C005B88002B0AD03B685B88012B06D05C4B81
:102C3C00584A40F21F11584801F0C2FB3B681B89EF
:102C4C00002B0AD03B681B89022B06D0554B514AEE
:102C5C004FF49071504801F0B3FB7B681B8C9BB216
:102C6C0023F001039AB27B681A847B681B8CFB816E
:102C7C007B689B88BB817B681B8B7B817B8923F06A
:102C8C0070037B817B8923F003037B813B681A886B
:102C9C007B8913437B81FB8923F00203FB813B6817
:102CAC001A89FB891343FB813B685A88FB891343C0
:102CBC00FB817B68284A934210D07B682A4A934256
:102CCC000CD07B682F4A934208D07B682E4A9342E3
:102CDC0004D07B682D4A934240F092803B689B88DD
:102CEC00002B0AD03B689B88042B06D02E4B294A1C
:102CFC0040F23D11284801F063FB3B685B89002BD7
:102D0C000AD03B685B89082B06D0284B214A4FF42C
:102D1C009F71214801F054FB3B68DB89B3F5007FC0
:102D2C000AD03B68DB89002B06D0214B194A40F2B4
:102D3C003F11194801F044FB3B689B89B3F5807F38
:102D4C003AD03B689B89002B36D01A4B114A4FF472
:102D5C00A071114801F034FB002C0140000400402C
:102D6C0000080040000C004000340140004C0140C1
:102D7C00005001400054014000180040001C00406D
:102D8C000020004000400140004401400048014048
:102D9C008061000854710008EC6000089C61000818
:102DAC00CC610008046200083C62000878620008EC
:102DBC00B0620008EC620008FB8923F00803FB8179
:102DCC003B685A89FB891343FB81FB8923F004037D
:102DDC00FB813B689A88FB891343FB81BB8923F4F5
:102DEC008073BB81BB8923F40073BB813B689A89D8
:102DFC00BB891343BB813B68DA89BB891343BB8115
:102E0C007B68BA899A807B687A891A833B68DA88EE
:102E1C007B689A867B68FA891A8400BF1037BD4696
:102E2C0080BD00BF80B584B000AF786039600023EE
:102E3C007B810023FB810023BB817B688D4A9342FD
:102E4C0026D07B68B3F1804F22D07B688A4A9342AC
:102E5C001ED07B68894A93421AD07B68884A934279
:102E6C0016D07B68874A934212D07B68864A93427D
:102E7C000ED07B68854A93420AD07B68844A934281
:102E8C0006D0844B844A4FF4B871844801F098FA08
:102E9C003B681B88002B1AD03B681B88102B16D064
:102EAC003B681B88202B12D03B681B88302B0ED024
:102EBC003B681B88602B0AD03B681B88702B06D0A4
:102ECC00774B754A40F27111744801F079FA3B68FE
:102EDC005B88002B0AD03B685B88012B06D0714BBA
:102EEC006D4A4FF4B9716D4801F06AFA3B681B8961
:102EFC00002B0AD03B681B89022B06D06A4B664A12
:102F0C0040F27311654801F05BFA7B681B8C9BB235
:102F1C0023F010039AB27B681A847B681B8CFB81AC
:102F2C007B689B88BB817B681B8B7B817B8923F4B3
:102F3C00E0437B817B8923F440737B813B681B8856
:102F4C001B029AB27B8913437B81FB8923F02003FC
:102F5C00FB813B681B891B019AB2FB891343FB81E4
:102F6C003B685B881B019AB2FB891343FB817B682E
:102F7C00404A934203D07B68424A934269D13B68F2
:102F8C009B88002B0AD03B689B88042B06D0474BB0
:102F9C00414A4FF4C871414801F012FA3B685B8911
:102FAC00002B0AD03B685B89082B06D0404B3A4A71
:102FBC0040F29111394801F003FA3B68DB89B3F513
:102FCC00007F0AD03B68DB89002B06D0394B324A94
:102FDC004FF4C971314801F0F3F93B689B89B3F5A3
:102FEC00807F0AD03B689B89002B06D0324B2A4A43
:102FFC0040F29311294801F0E3F9FB8923F0800397
:10300C00FB813B685B891B019AB2FB891343FB81F3
:10301C00FB8923F04003FB813B689B881B019AB220
:10302C00FB891343FB81BB8923F48063BB81BB8980
:10303C0023F40063BB813B689B899B009AB2BB89DC
:10304C001343BB813B68DB899B009AB2BB8913435A
:10305C00BB817B68BA899A807B687A891A833B68C2
:10306C00DA887B681A877B68FA891A8400BF103764
:10307C00BD4680BD002C014000040040000800400B
:10308C00000C004000340140004C0140001800408E
:10309C00004001402463000860710008EC600008E7
:1030AC009C610008CC610008046200083C620008C6
:1030BC0078620008B0620008EC62000880B584B049
:1030CC0000AF7860396000237B810023FB810023F3
:1030DC00BB817B68864A93421AD07B68B3F1804FE0
:1030EC0016D07B68834A934212D07B68824A934203
:1030FC000ED07B68814A93420AD07B68804A934207
:10310C0006D0804B804A4FF4E171804801F058F9A9
:10311C003B681B88002B1AD03B681B88102B16D0E1
:10312C003B681B88202B12D03B681B88302B0ED0A1
:10313C003B681B88602B0AD03B681B88702B06D021
:10314C00734B714A40F2C311704801F039F93B6876
:10315C005B88002B0AD03B685B88012B06D06D4B3B
:10316C00694A4FF4E271694801F02AF93B681B89FE
:10317C00002B0AD03B681B89022B06D0664B624A97
:10318C0040F2C511614801F01BF97B681B8C9BB2A6
:10319C0023F480739AB27B681A847B681B8CFB8146
:1031AC007B689B88BB817B689B8B7B817B8923F0B5
:1031BC0070037B817B8923F003037B813B681A8836
:1031CC007B8913437B81FB8923F40073FB813B6870
:1031DC001B891B029AB2FB891343FB813B685B88FA
:1031EC001B029AB2FB891343FB817B68404A9342D2
:1031FC0003D07B68424A934269D13B689B88002B81
:10320C000AD03B689B88042B06D0444B3E4A40F2C4
:10321C00E1113E4801F0D4F83B685B89002B0AD0E1
:10322C003B685B89082B06D03D4B374A4FF4F17154
:10323C00364801F0C5F83B68DB89B3F5007F0AD04E
:10324C003B68DB89002B06D0364B2F4A40F2E3114A
:10325C002E4801F0B5F83B689B89B3F5807F0AD006
:10326C003B689B89002B06D02F4B274A4FF4F271F9
:10327C00264801F0A5F8FB8923F40063FB813B6829
:10328C005B891B029AB2FB891343FB81FB8923F4F4
:10329C008063FB813B689B881B029AB2FB891343BA
:1032AC00FB81BB8923F48053BB81BB8923F400537E
:1032BC00BB813B689B891B019AB2BB891343BB81C1
:1032CC003B68DB891B019AB2BB891343BB817B68CA
:1032DC00BA899A807B687A899A833B68DA887B689A
:1032EC009A877B68FA891A8400BF1037BD4680BD67
:1032FC00002C01400004004000080040000C00407D
:10330C0000340140406300086C710008EC60000858
:10331C009C610008CC610008046200083C62000853
:10332C0078620008B0620008EC62000880B582B0D8
:10333C0000AF786039607B68524A934216D07B6844
:10334C00514A934212D07B68504A93420ED07B680C
:10335C004F4A93420AD07B684E4A934206D04E4B5A
:10336C004E4A4FF433714E4801F02AF83B681B88E3
:10337C00B3F5006F0AD03B681B88002B06D0494B75
:10338C00464A40F2CD21464801F01AF83B685B886A
:10339C00B3F5806F0AD03B685B88002B06D0424B9C
:1033AC003E4A40F2CE213E4801F00AF83B689B8829
:1033BC00002B15D03B689B88B3F5807F10D03B6801
:1033CC009B88B3F5007F0BD03B689B88B3F5407F9F
:1033DC0006D0364B314A40F2CF21314800F0F0FF95
:1033EC003B681B89B3F5805F0AD03B681B89002BB7
:1033FC0006D02F4B294A4FF43471294800F0E0FFD6
:10340C003B685B89002B0BD03B685B89B3F5005F95
:10341C0006D0284B214A40F2D121214800F0D0FFA0
:10342C003B689B89B3F5804F0AD03B689B89002B86
:10343C0006D0214B194A40F2D221194800F0C0FFA6
:10344C003B681A883B685B8813439AB23B689B883D
:10345C0013439AB23B68DB8813439AB23B681B89CF
:10346C0013439AB23B685B8913439AB23B689B89BE
:10347C0013439AB27B68A3F8442000BF0837BD46BB
:10348C0080BD00BF002C01400034014000400140D1
:10349C000044014000480140A46400087871000811
:1034AC00EC600008C0640008F8640008306500088F
:1034BC00686500089C650008DC65000880B483B072
:1034CC0000AF78607B684FF6FF729A807B680022B1
:1034DC001A807B680022DA807B6800225A807B6825
:1034EC0000221A7200BF0C37BD4680BC704700002A
:1034FC0080B582B000AF78600B46FB707B68374AB2
:10350C00934246D07B68B3F1804F42D07B68344AFB
:10351C0093423ED07B68334A93423AD07B68324A1E
:10352C00934236D07B68314A934232D07B68304A22
:10353C0093422ED07B682F4A93422AD07B682E4A26
:10354C00934226D07B682D4A934222D07B682C4A2A
:10355C0093421ED07B682B4A93421AD07B682A4A2E
:10356C00934216D07B68294A934212D07B68284A32
:10357C0093420ED07B68274A93420AD07B68264A36
:10358C00934206D0254B264A40F22A31254800F0BA
:10359C0017FFFB78002B09D0FB78012B06D0224BB0
:1035AC001F4A40F22B311F4800F00AFFFB78002B1A
:1035BC0008D07B681B889BB243F001039AB27B68EE
:1035CC001A8007E07B681B889BB223F001039AB238
:1035DC007B681A8000BF0837BD4680BD002C0140B7
:1035EC000004004000080040000C004000100040A7
:1035FC000014004000340140004C014000500140D8
:10360C000054014000180040001C00400020004005
:10361C00004001400044014000480140D4600008D3
:10362C0088710008EC6000082466000880B582B040
:10363C0000AF78600B46FB707B68224A934216D031
:10364C007B68214A934212D07B68204A93420ED069
:10365C007B681F4A93420AD07B681E4A934206D06D
:10366C001D4B1E4A40F243311D4800F0A9FEFB7869
:10367C00002B09D0FB78012B06D01A4B174A4FF4BC
:10368C005171174800F09CFEFB78002B0CD07B6826
:10369C00B3F844309BB26FEA43436FEA53439AB298
:1036AC007B68A3F8442009E07B68B3F844309BB2F4
:1036BC00C3F30E039AB27B68A3F8442000BF08370B
:1036CC00BD4680BD002C014000340140004001404B
:1036DC000044014000480140A464000890710008B7
:1036EC00EC6000082466000880B582B000AF7860FA
:1036FC000B467B8013467B707B68404A934246D0D6
:10370C007B68B3F1804F42D07B683D4A93423ED0F8
:10371C007B683C4A93423AD07B683B4A934236D012
:10372C007B683A4A934232D07B68394A93422ED016
:10373C007B68384A93422AD07B68374A934226D01A
:10374C007B68364A934222D07B68354A93421ED01E
:10375C007B68344A93421AD07B68334A934216D022
:10376C007B68324A934212D07B68314A93420ED026
:10377C007B68304A93420AD07B682F4A934206D02A
:10378C002E4B2F4A4FF45B712E4800F019FE7B88AC
:10379C0003F47F43002B02D17B88002B06D12A4BEC
:1037AC00274A40F26D31274800F00AFE7B78002B47
:1037BC0009D07B78012B06D0244B214A40F26E3184
:1037CC00204800F0FDFD7B78002B08D07B689B899E
:1037DC009AB27B8813439AB27B689A8109E07B6822
:1037EC009B899AB27B88DB439BB213409AB27B686D
:1037FC009A8100BF0837BD4680BD00BF002C014038
:10380C000004004000080040000C00400010004084
:10381C000014004000340140004C014000500140B5
:10382C000054014000180040001C004000200040E3
:10383C00004001400044014000480140D4600008B1
:10384C00A4710008EC6000084466000824660008B7
:10385C0080B584B000AF78600B467B8013463B800C
:10386C000023FB817B68404A93423ED07B68B3F1D6
:10387C00804F3AD07B683D4A934236D07B683C4AB5
:10388C00934232D07B683B4A93422ED07B683A4AB3
:10389C0093422AD07B68394A934226D07B68384AB7
:1038AC00934222D07B68374A93421ED07B68364ABB
:1038BC0093421AD07B68354A934216D07B68344ABF
:1038CC00934212D07B68334A93420ED07B68324AC3
:1038DC0093420AD07B68314A934206D0304B314A2E
:1038EC0040F2BC71304800F06BFD7B88002B0FD090
:1038FC007B88042B0CD07B88082B09D07B880C2B65
:10390C0006D02A4B274A40F2BD71274800F058FDDB
:10391C003B88012B09D03B88002B06D0244B214A35
:10392C0040F2BE71204800F04BFD7B88012202FA68
:10393C0003F3FB817B681B8C9AB2FB89DB439BB244
:10394C0013409AB27B681A847B681B8C9AB23988B4
:10395C007B8801FA03F39BB213439AB27B681A84F7
:10396C0000BF1037BD4680BD002C01400004004054
:10397C0000080040000C004000340140004C0140A5
:10398C00005001400054014000180040001C004051
:10399C00002000400040014000440140004801402C
:1039AC0080610008B4710008EC600008546A0008DB
:1039BC00706A000880B584B000AF78600B467B80DD
:1039CC0013463B800023FB817B682B4A934216D025
:1039DC007B682A4A934212D07B68294A93420ED0C4
:1039EC007B68284A93420AD07B68274A934206D0C8
:1039FC00264B274A40F2DA71264800F0E1FC7B881E
:103A0C00002B0CD07B88042B09D07B88082B06D08C
:103A1C00214B1F4A40F2DB711E4800F0D1FC3B8861
:103A2C00042B09D03B88002B06D01C4B184A40F2C3
:103A3C00DC71184800F0C4FC7B88042202FA03F302
:103A4C00FB817B681B8C9AB2FB89DB439BB21340D6
:103A5C009AB27B681A847B681B8C9AB239887B88F3
:103A6C0001FA03F39BB213439AB27B681A8400BF2A
:103A7C001037BD4680BD00BF002C01400034014012
:103A8C00004001400044014000480140A46400088B
:103A9C00C0710008EC600008846A0008B06A000875
:103AAC0080B584B000AF78600B467B8013463B80BA
:103ABC000023FB6000237B817B685F4A93423ED0EE
:103ACC007B68B3F1804F3AD07B685C4A934236D026
:103ADC007B685B4A934232D07B685A4A93422ED021
:103AEC007B68594A93422AD07B68584A934226D025
:103AFC007B68574A934222D07B68564A93421ED029
:103B0C007B68554A93421AD07B68544A934216D02C
:103B1C007B68534A934212D07B68524A93420ED030
:103B2C007B68514A93420AD07B68504A934206D034
:103B3C004F4B504A40F604014F4800F041FC7B8843
:103B4C00002B0FD07B88042B0CD07B88082B09D042
:103B5C007B880C2B06D0494B464A40F6050146485B
:103B6C0000F02EFC3B88002B1BD03B88102B18D070
:103B7C003B88202B15D03B88302B12D03B88602BF8
:103B8C000FD03B88702B0CD03B88502B09D03B8836
:103B9C00402B06D03A4B374A40F60601364800F027
:103BAC000FFC7B68FB60FB681833FB607B88012291
:103BBC0002FA03F37B817B681B8C9AB27B89DB4313
:103BCC009BB213409AB27B681A847B88002B02D07C
:103BDC007B88082B13D17B885B089BB21A46FB6849
:103BEC001344FB60FB681A68FB6822F070021A60D1
:103BFC00FB6819683A88FB680A431A6018E07B88EE
:103C0C00043B9BB25B089BB21A46FB681344FB60F7
:103C1C00FB681A68FB6822F4E0421A60FB681A68B9
:103C2C003B881B029BB21946FB680A431A6000BF13
:103C3C0000BF1037BD4680BD002C01400004004081
:103C4C0000080040000C004000340140004C0140D2
:103C5C00005001400054014000180040001C00407E
:103C6C000020004000400140004401400048014059
:103C7C0080610008CC710008EC600008546A0008F0
:103C8C00C86A000880B582B000AF78600B467B80B4
:103C9C007B68284A934246D07B68B3F1804F42D070
:103CAC007B68254A93423ED07B68244A93423AD0A3
:103CBC007B68234A934236D07B68224A934232D0A7
:103CCC007B68214A93422ED07B68204A93422AD0AB
:103CDC007B681F4A934226D07B681E4A934222D0AF
:103CEC007B681D4A93421ED07B681C4A93421AD0B3
:103CFC007B681B4A934216D07B681A4A934212D0B7
:103D0C007B68194A93420ED07B68184A93420AD0BA
:103D1C007B68174A934206D0164B174A40F6DC01D3
:103D2C00164800F04DFB7B687A889A8400BF0837F0
:103D3C00BD4680BD002C014000040040000800403E
:103D4C00000C004000100040001400400034014002
:103D5C00004C01400050014000540140001800404C
:103D6C00001C004000200040004001400044014085
:103D7C0000480140D4600008DC710008EC600008C9
:103D8C0080B582B000AF78607B68284A934246D0F9
:103D9C007B68B3F1804F42D07B68254A93423ED07A
:103DAC007B68244A93423AD07B68234A934236D0AC
:103DBC007B68224A934232D07B68214A93422ED0B0
:103DCC007B68204A93422AD07B681F4A934226D0B4
:103DDC007B681E4A934222D07B681D4A93421ED0B8
:103DEC007B681C4A93421AD07B681B4A934216D0BC
:103DFC007B681A4A934212D07B68194A93420ED0C0
:103E0C007B68184A93420AD07B68174A934206D0C3
:103E1C00164B174A40F6D111164800F0D1FA7B68C0
:103E2C009B8C9BB218460837BD4680BD002C0140C8
:103E3C000004004000080040000C0040001000404E
:103E4C000014004000340140004C0140005001407F
:103E5C000054014000180040001C004000200040AD
:103E6C00004001400044014000480140D46000087B
:103E7C00EC710008EC60000880B584B000AF78608D
:103E8C000B467B800023FB730023BB8100237B81CB
:103E9C007B68424A934246D07B68B3F1804F42D054
:103EAC007B683F4A93423ED07B683E4A93423AD06D
:103EBC007B683D4A934236D07B683C4A934232D071
:103ECC007B683B4A93422ED07B683A4A93422AD075
:103EDC007B68394A934226D07B68384A934222D079
:103EEC007B68374A93421ED07B68364A93421AD07D
:103EFC007B68354A934216D07B68344A934212D081
:103F0C007B68334A93420ED07B68324A93420AD084
:103F1C007B68314A934206D0304B314A40F64E21F1
:103F2C00304800F04DFA7B88012B1BD07B88022B8C
:103F3C0018D07B88042B15D07B88082B12D07B885B
:103F4C00102B0FD07B88202B0CD07B88402B09D0DA
:103F5C007B88802B06D0244B214A40F64F212148E8
:103F6C0000F02EFA7B681B8A9AB27B881340BB81C7
:103F7C007B689B899AB27B8813407B81BB89002B21
:103F8C0005D07B89002B02D00123FB7301E00023B9
:103F9C00FB73FB7B18461037BD4680BD002C0140DF
:103FAC000004004000080040000C004000100040DD
:103FBC000014004000340140004C0140005001400E
:103FCC000054014000180040001C0040002000403C
:103FDC00004001400044014000480140D46000080A
:103FEC00FC710008EC600008206C000880B582B001
:103FFC0000AF78600B467B807B68314A934246D099
:10400C007B68B3F1804F42D07B682E4A93423ED0FE
:10401C007B682D4A93423AD07B682C4A934236D027
:10402C007B682B4A934232D07B682A4A93422ED02B
:10403C007B68294A93422AD07B68284A934226D02F
:10404C007B68274A934222D07B68264A93421ED033
:10405C007B68254A93421AD07B68244A934216D037
:10406C007B68234A934212D07B68224A93420ED03B
:10407C007B68214A93420AD07B68204A934206D03F
:10408C001F4B204A40F678211F4800F099F97B8895
:10409C0003F47F43002B02D17B88002B06D11B4BF2
:1040AC00184A40F67921184800F08AF97B88DB43DE
:1040BC009AB27B681A8200BF0837BD4680BD00BF2C
:1040CC00002C01400004004000080040000C00409F
:1040DC00001000400014004000340140004C01402E
:1040EC00005001400054014000180040001C0040EA
:1040FC0000200040004001400044014000480140C5
:10410C00D46000080C720008EC60000844660008DB
:10411C0080B485B000AF78600A4B1B68002B02D1CD
:10412C00084B094A1A60074B1B68FB60054B1A6861
:10413C007B681344034A1360FB6818461437BD466A
:10414C0080BC704798040020B004002080B483B079
:10415C0000AF78604FF0FF3318460C37BD4680BC7B
:10416C00704780B483B000AF786039603B684FF41F
:10417C0000525A60002318460C37BD4680BC70476D
:10418C0080B483B000AF7860012318460C37BD466D
:10419C0080BC704780B485B000AFF860B9607A60BD
:1041AC00002318461437BD4680BC704780B485B0D8
:1041BC0000AFF860B9607A607B6818461437BD466A
:1041CC0080BC704780B485B000AFF860B9607A608D
:1041DC007B6818461437BD4680BC704780B400AF6E
:1041EC00FEE7000080B500AF154B1B68144A43F086
:1041FC0001031360124B5A681149124B13404B6068
:10420C000F4B1B680E4A23F0847323F48033136026
:10421C000B4B1B680A4A23F480231360084B5B6822
:10422C00074A23F4FE035360054B4FF41F029A60B8
:10423C0000F00CF8044B4FF000629A6000BF80BD98
:10424C00001002400000FFF800ED00E080B500AF68
:10425C0000F002F800BF80BD80B483B000AF002333
:10426C007B6000233B603A4B1B68394A43F4803334
:10427C001360374B1B6803F400333B607B680133DE
:10428C007B603B68002B03D17B68B3F5A06FF0D14A
:10429C002F4B1B6803F40033002B02D001233B602F
:1042AC0001E000233B603B68012B4BD1294B1B6881
:1042BC00284A43F010031360264B1B68254A23F051
:1042CC0003031360234B1B68224A43F00203136061
:1042DC001F4B1F4A5B6853601D4B1D4A5B68536044
:1042EC001B4B5B681A4A43F480635360184B5B6842
:1042FC00174A23F47C135360154B5B68144A43F440
:10430C00E8135360124B1B68114A43F0807313601F
:10431C0000BF0F4B1B6803F00073002BF9D00C4B44
:10432C005B680B4A23F003035360094B5B68084A34
:10433C0043F00203536000BF054B5B6803F00C03B2
:10434C00082BF9D100BF0C37BD4680BC704700BFAD
:10435C00001002400020024080B582B000AF114B2B
:10436C007B60114B3B6007E07A68131D7B603B68F8
:10437C00191D396012681A603B680C4A9342F3D3DA
:10438C000B480C494FF000028842B8BF40F8042B90
:10439C00FADBFFF727FFFBF793FF00BF0837BD469B
:1043AC0080BD00BF007300080000002068000020E2
:1043BC0068040020AC04002080B400AFFEE70000CD
:1043CC001FB514461A46094B05461B68D8684CB1F4
:1043DC00074BCDE9013400912B46064900F00EF84D
:1043EC00FFF7FCFE044B1C46F3E700BF0400002063
:1043FC00227200082F7200085D7200080EB403B51B
:10440C00014603AB054853F8042B0068019300F0F8
:10441C0037F802B05DF804EB03B0704704000020DD
:10442C0003460244934200D1704703F8011BF9E79D
:10443C00936810B4013B002B936007DA9469A34294
:10444C0001DB0A2902D110BC00F0E0BA1368581C39
:10445C0010601970084610BC7047F8B506460F4638
:10446C001446D518AC4201D1002007E03A4630463C
:10447C0014F8011BFFF7DCFF431CF3D1F8BD00005F
:10448C002DE9F04F0D461446984606469DB018B1DE
:10449C0083690BB900F090FC894B9D421BD1756868
:1044AC006B6ED90705D4AB899A0502D4A86D00F0C0
:1044BC0021FDAB891B0701D52B69EBB92946304689
:1044CC0000F0F6FAC0B16B6EDC070ED54FF0FF3082
:1044DC001DB0BDE8F08F7B4B9D4201D1B568DFE785
:1044EC00794B9D4208BFF568DAE7AB899805EDD4A6
:1044FC00A86D00F000FDE9E70023099320238DF857
:10450C00293030234FF00109CDF80C80DFF8BC8145
:10451C008DF82A3023469A4613F8012B0AB1252A26
:10452C00F9D1BAEB040B0BD05B4622462946304638
:10453C00FFF793FF013000F0AA80099A5A440992C0
:10454C009AF80030002B00F0A28000234FF0FF32CD
:10455C00CDE905230AF1010A049307938DF8533032
:10456C001A935446052214F8011B584800F02AFDF2
:10457C00049AD8B9D10644BF20238DF853301307C1
:10458C0044BF2B238DF853309AF800302A2B15D0CA
:10459C00544600204FF00A0C079A214611F8013BB3
:1045AC00303B092B4ED9B0B1079214E0A0EB0803B5
:1045BC0009FA03F31343A2460493D2E7039B191D94
:1045CC001B680391002BBBBF5B4242F002020793B6
:1045DC000793B8BF049223782E2B0CD163782A2B27
:1045EC0035D1039B02341A1D1B680392002BB8BFF4
:1045FC004FF0FF330593DFF8D8A003225046217803
:10460C0000F0E0FC40B14023A0EB0A0003FA00F0FC
:10461C00049B01340343049314F8011B06222D4818
:10462C008DF8281000F0CEFC00283FD02A4B1BBB85
:10463C00039B073323F0070308330393099B3B4485
:10464C00099367E70C4601200CFB0232A5E7002317
:10465C004FF00A0C194601340593204610F8012B33
:10466C00303A092A03D9002BC5D00591C3E704467B
:10467C0001230CFB0121F0E703AB00932A463046E3
:10468C00164B04A9AFF300800746781CD6D16B6E8D
:10469C00D90705D4AB899A0502D4A86D00F02BFC80
:1046AC00AB895B063FF512AF099811E703AB00939A
:1046BC002A463046094B04A900F082F8E4E700BF13
:1046CC00B8720008D872000898720008647200086A
:1046DC006A7200086E72000800000000674400084F
:1046EC002DE9F047164699468A680B6907469342AE
:1046FC00B8BF1346336091F843200C46DDF8208098
:10470C000AB1013333602368990642BF3368023320
:10471C003360256815F0060506D104F1190AE36823
:10472C0032689B1AAB4228DC94F84320131E226893
:10473C0018BF012392062DD44946384604F1430292
:10474C00C047013020D02368E56803F00603042B32
:10475C0018BF002532684FF00006A36808BFAD1AD9
:10476C00226908BF25EAE5759342C4BF9B1AED1870
:10477C001A34B5421AD1002008E0012352464946AA
:10478C003846C047013003D14FF0FF30BDE8F08709
:10479C000135C4E73020E11881F843005A1C94F825
:1047AC0045102244023382F84310C5E70123224608
:1047BC0049463846C0470130E6D00136D9E70000FB
:1047CC002DE9FF470F7E9146782F80460C469A467E
:1047DC000C9D01F1430207D8622F0AD8002F00F07C
:1047EC00D980582F00F0A48004F1420584F842705F
:1047FC003AE0A7F16303152BF6D801A151F823F089
:10480C006548000879480008F5470008F547000896
:10481C00F5470008F547000879480008F5470008F7
:10482C00F5470008F5470008F547000887490008D8
:10483C00A948000869490008F5470008F547000831
:10484C00A9490008F5470008A9480008F5470008E1
:10485C00F5470008714900082B681A1D1B682A606F
:10486C0004F1420584F842300123A4E02068296851
:10487C00060601F104030AD50E682B60002E03DA3C
:10488C002D23764284F843300A235E4819E00E68E3
:10489C0010F0400F2B6018BF36B2EFE72B68206882
:1048AC00191D2960010601D51E6802E04606FBD5DC
:1048BC001E886F2F0CBF08230A235248002184F84E
:1048CC0043106568002DA8BF2168A560A4BF21F026
:1048DC00040121600EB9002D4DD01546B6FBF3F145
:1048EC0003FB1167C75D05F8017D3746BB420E46D9
:1048FC00F4D9082B0BD12368DE0708D5236961682E
:10490C009942DEBF302305F8013C05F1FF35521BFF
:10491C0022614B4621464046CDF800A003AAFFF782
:10492C00DFFE01304CD14FF0FF3004B0BDE8F08712
:10493C00344881F845702968236851F8046B296064
:10494C001D0614D5DF0744BF43F0200323601EB9B6
:10495C00236823F0200323601023AFE7236843F080
:10496C00200323607823284884F84530E3E7590670
:10497C0048BFB6B2E6E71546BBE72B682668181D9C
:10498C006169286035061B6801D5196002E0700664
:10499C00FBD51980002315462361BAE72B6800214B
:1049AC001A1D2A601D686268284600F00BFB08B1CE
:1049BC00401B606063682361002384F84330A8E7E0
:1049CC002A46494640462369D0470130ABD023687C
:1049DC009B0713D4E068039B9842B8BF1846A4E722
:1049EC000123324649464046D04701309BD0013521
:1049FC00E36803995B1AAB42F2DCEBE7002504F1A8
:104A0C001906F5E77572000886720008F8B50E46AF
:104A1C001446054618B183690BB900F0CDF9214B4A
:104A2C009C422BD16C68A369A360A3891A072FD56C
:104A3C0023696BB323692068F6B2C01A63693746E1
:104A4C00834204DC2146284600F022F930BBA368DF
:104A5C000130013BA36023685A1C22601E706369FD
:104A6C00834204D0A389DB0706D50A2E04D1214644
:104A7C00284600F00DF988B93846F8BD0A4B9C421F
:104A8C0001D1AC68CFE7094B9C4208BFEC68CAE780
:104A9C002146284600F00CF80028CBD04FF0FF3709
:104AAC00EAE700BFB8720008D872000898720008D4
:104ABC00324B70B51D6806460C4625B1AB6913B96F
:104ACC00284600F079F92E4B9C420FD16C68A389D3
:104ADC00B4F90C2019072CD4DD0611D4092333604A
:104AEC0042F040034FF0FF30A3813EE0254B9C4247
:104AFC0001D1AC68EBE7244B9C4208BFEC68E6E7BD
:104B0C00580712D5616B41B104F14403994202D0AC
:104B1C00304600F065FA00236363A38923F0240375
:104B2C00A3810023636023692360A38943F00803F6
:104B3C00A38123694BB9A38903F42073B3F5007FD8
:104B4C0003D02146304600F0FDF9A089B4F90C20C1
:104B5C0010F001030AD00023A36063695B42A361D8
:104B6C00236943B910F08000BAD170BD810758BFDA
:104B7C006369A360F4E70020F7E700BF040000209E
:104B8C00B8720008D8720008987200088A89F8B5C3
:104B9C00054610070C4657D44B68002B04DC0B6CF5
:104BAC00002B01DC0020F8BDE66A002EFAD00023B1
:104BBC0012F480522F682B6032D0606DA3895A0793
:104BCC0005D56368C01A636B0BB1236CC01A002344
:104BDC000246E66A2846216AB047431CA38906D1DF
:104BEC0029681D292CD8294ACA40D60728D5002265
:104BFC0062602269D904226004D5421C01D12B6861
:104C0C0003B96065616B2F600029CBD004F14403BC
:104C1C00994202D0284600F0E3F900206063C2E715
:104C2C00216A01232846B047411CC7D12B68002BB1
:104C3C00C4D01D2B01D0162B01D12F60B2E7A38954
:104C4C0043F04003A381AEE70F69002FAAD093076E
:104C5C0018BF00230E6808BF4B69F61B0F608B60F2
:104C6C00002E9FDD33463A462846216AD4F828C0E8
:104C7C00E047002806DCA3894FF0FF3043F04003E7
:104C8C00A38190E70744361AEAE700BF01004020F1
:104C9C0038B50B6905460C4613B90025284638BDB6
:104CAC0018B183690BB900F087F8144B9C421BD1E7
:104CBC006C68B4F90C30002BEFD0626ED00704D4C2
:104CCC00990502D4A06D00F015F928462146FFF78E
:104CDC005DFF636E0546DA07E0D4A3899B05DDD43E
:104CEC00A06D00F008F9D9E7054B9C4201D1AC68E6
:104CFC00DFE7044B9C4208BFEC68DAE7B8720008A7
:104D0C00D872000898720008002310B50446C0E958
:104D1C000033C0E90433836081814366C2818361BF
:104D2C00194608225C30FFF77BFB054B246263625B
:104D3C00044BA362044BE362044B236310BD00BF1E
:104D4C00C5510008E75100081F52000843520008E3
:104D5C00014900F0AFB800BF9D4C0008682270B547
:104D6C004D1E55430E4605F1740100F0A1F90446A1
:104D7C0040B10021C0E900160C30A06005F16802BA
:104D8C00FFF74EFB204670BD014800F0B3B800BFE2
:104D9C009D040020014800F0AEB800BF9D04002027
:104DAC00014800F0A7B800BF9E040020014800F0A5
:104DBC00A2B800BF9E04002010B50446FFF7F0FF18
:104DCC00A3691BB1BDE81040FFF7F0BFC4E9123373
:104DDC002365134B134A1B68A262A34208BF01232D
:104DEC00204608BFA36100F01FF86060204600F069
:104DFC001BF8A060204600F017F800220421E060A8
:104E0C006068FFF781FF01220921A068FFF77CFF92
:104E1C0002221221E068FFF777FF0123A361D1E79B
:104E2C00607200085D4D0008F8B50746FFF7ACFF4F
:104E3C001E4B1E68B36913B93046FFF7BDFF4836E9
:104E4C00D6E90134013B03D533680BB33668F7E779
:104E5C00B4F90C50D5B9164B04F15800E3606566F3
:104E6C0000F047F8FFF796FF08222946C4E90155E0
:104E7C00C4E904552560A56104F15C00FFF7D0FA84
:104E8C00C4E90D55C4E912552046F8BD6834D9E77C
:104E9C0004213846FFF762FF044630600028D5D164
:104EAC00FFF778FF0C233B60EEE700BF6072000851
:104EBC000100FFFF2DE9F84306468846002700F164
:104ECC004804D4E90195B9F1010905D52468002CF1
:104EDC00F7D13846BDE8F883AB89012B07D9B5F972
:104EEC000E30013303D029463046C047074368359E
:104EFC00E9E770477047704770B50E46B1F90E1070
:104F0C00144600291D4696B008DA0022B6F90C307A
:104F1C002A601A0610D44FF480630EE06A4600F043
:104F2C00B1F90028F1DB019A02F47042A2F50053AA
:104F3C005A425A412A60EEE740230020236016B003
:104F4C0070BD00008B8973B59D0706460C4607D5CE
:104F5C0004F14703236023610123636102B070BD38
:104F6C006A4601ABFFF7C8FF00990546304600F0D2
:104F7C009FF848B9B4F90C309A05EFD423F0030329
:104F8C0043F00203A381E3E70D4BB362A3892060D6
:104F9C0043F08003A381009B20616361019B5BB1A3
:104FAC003046B4F90E1000F07FF928B1A38923F034
:104FBC00030343F00103A381A0890543A581CDE739
:104FCC005D4D0008034610B5C9B202449342184621
:104FDC0001D1002003E0047801338C42F6D110BDDE
:104FEC0038B50546002940D051F8043C0C1F002B65
:104FFC00B8BFE41800F07AF91C4A136833B963603F
:10500C0014602846BDE8384000F076B9A34208D9B0
:10501C00206821188B4201BF19685B680918216050
:10502C00EDE71A465B680BB1A342FAD91168501828
:10503C00A0420BD120680144501883421160E0D18A
:10504C0018685B68014411605360DAE702D90C23DD
:10505C002B60D6E7206821188B4201BF19685B686A
:10506C000918216063605460CBE738BDA0040020B0
:10507C0070B50E4E0C463168054611B900F08CF82F
:10508C0030602146284600F087F8431C0AD0C41C27
:10509C0024F00304A04207D0211A284600F07CF823
:1050AC00013001D14FF0FF34204670BDA404002024
:1050BC002DE9F041CD1C25F0030508350C2D38BF2A
:1050CC000C25002D074601DBA94205D90C2300262F
:1050DC003B603046BDE8F0812E4E00F007F9336896
:1050EC001C4634BB29463846FFF7C2FF431C044616
:1050FC004DD134682646002E40D1236831463846BF
:10510C0004EB030800F048F880453AD121680335D8
:10511C006D1A25F0030508350C2D38BF0C253846C3
:10512C002946FFF7A5FF01302BD023682B442360C1
:10513C000EE02268521B1ED40B2A16D96119A34209
:10514C00256018BF5960636808BF316062514B60BD
:10515C00384604F10B0600F0CFF826F00706231DA5
:10516C00F21AB6D09B1BA350B3E76268A3420CBFE4
:10517C0032605A60ECE723466468B2E734467668DE
:10518C00B9E70C2338463B6000F0B6F8A1E7256080
:10519C00DEE700BFA004002038B50023054D04460F
:1051AC0008462B60FEF7B4FF431C02D12B6803B1F9
:1051BC00236038BDA804002010B50C46B1F90E10C0
:1051CC0000F0A0F80028ABBF636DA3891B1823F473
:1051DC008053ACBF6365A38110BD2DE9F0411F4620
:1051EC008B890546DB050C46164605D502230022A5
:1051FC00B1F90E1000F068F8A389324623F48053FD
:10520C00A38128463B46B4F90E10BDE8F04100F0EE
:10521C0017B810B50C46B1F90E1000F055F8431C38
:10522C00A38915BF606523F4805343F48053A38195
:10523C0018BFA38110BDB1F90E1000F013B8000017
:10524C0038B50446084611460022054D2A601A4618
:10525C00FEF7B8FF431C02D12B6803B1236038BDA5
:10526C00A804002038B50023054D044608462B60E1
:10527C00FEF76CFF431C02D12B6803B1236038BDD1
:10528C00A804002038B50023064D044608461146F4
:10529C002B60FEF766FF431C02D12B6803B1236021
:1052AC0038BD00BFA804002038B50023054D0446C6
:1052BC0008462B60FEF764FF431C02D12B6803B138
:1052CC00236038BDA804002038B5044608461146B2
:1052DC000022054D2A601A46FEF75CFF431C02D1E2
:1052EC002B6803B1236038BDA80400200148FFF7E8
:1052FC0001BE00BF9C0400200148FFF7FCBD00BFAD
:10530C009C04002038B50446084611460022054D81
:10531C002A601A46FEF74AFF431C02D12B6803B1E0
:10532C00236038BDA8040020F8B500BFF8BC08BC49
:10533C009E467047F8B500BFF8BC08BC9E46704747
:10534C0049535F4E5649435F5052494F5249545945
:10535C005F47524F5550284E5649435F5072696F04
:10536C007269747947726F75702900002E2E2F5355
:10537C0072632F6D6973632E6300000049535F469F
:10538C00554E4354494F4E414C5F5354415445285C
:10539C004E5649435F496E69745374727563742D2C
:1053AC003E4E5649435F4952514368616E6E656C7F
:1053BC00436D64290000000049535F4E5649435F1A
:1053CC00505245454D5054494F4E5F5052494F52E3
:1053DC00495459284E5649435F496E697453747247
:1053EC007563742D3E4E5649435F49525143686173
:1053FC006E6E656C507265656D7074696F6E50720F
:10540C00696F72697479290049535F4E5649435F3D
:10541C005355425F5052494F52495459284E5649A0
:10542C00435F496E69745374727563742D3E4E56A6
:10543C0049435F4952514368616E6E656C537562A6
:10544C005072696F726974792900000049535F4E7C
:10545C005649435F56454354544142284E5649439E
:10546C005F566563745461622900000049535F4EB6
:10547C005649435F4F4646534554284F66667365FD
:10548C007429000049535F4E5649435F4C50284CD9
:10549C006F77506F7765724D6F646529000000005F
:1054AC0049535F46554E4354494F4E414C5F5354FC
:1054BC00415445284E65775374617465290000008A
:1054CC0049535F5359535449434B5F434C4B5F53C0
:1054DC004F55524345285379735469636B5F434C62
:1054EC004B536F75726365290000000049535F418F
:1054FC0044435F414C4C5F5045524950482841440D
:10550C00437829002E2E2F5372632F73746D333210
:10551C00663130785F6164632E63000049535F41EC
:10552C0044435F4D4F4445284144435F496E697481
:10553C005374727563742D3E4144435F4D6F6465C3
:10554C002900000049535F46554E4354494F4E4184
:10555C004C5F5354415445284144435F496E697430
:10556C005374727563742D3E4144435F5363616E93
:10557C00436F6E764D6F64652900000049535F469A
:10558C00554E4354494F4E414C5F5354415445285A
:10559C004144435F496E69745374727563742D3E54
:1055AC004144435F436F6E74696E756F7573436FDF
:1055BC006E764D6F6465290049535F4144435F45E6
:1055CC0058545F54524947284144435F496E6974AB
:1055DC005374727563742D3E4144435F4578746512
:1055EC00726E616C54726967436F6E7629000000AD
:1055FC0049535F4144435F444154415F414C4947E7
:10560C004E284144435F496E6974537472756374D8
:10561C002D3E4144435F44617461416C69676E295E
:10562C000000000049535F4144435F524547554CCD
:10563C0041525F4C454E475448284144435F496EA4
:10564C0069745374727563742D3E4144435F4E62AA
:10565C00724F664368616E6E656C290049535F46F4
:10566C00554E4354494F4E414C5F53544154452879
:10567C004E657753746174652900000049535F418E
:10568C0044435F444D415F50455249504828414482
:10569C004378290049535F4144435F4954284144AE
:1056AC00435F49542900000049535F4144435F5212
:1056BC004547554C41525F444953435F4E554D420B
:1056CC004552284E756D62657229000049535F4141
:1056DC0044435F4348414E4E454C284144435F434D
:1056EC0068616E6E656C290049535F4144435F529B
:1056FC004547554C41525F52414E4B2852616E6B9F
:10570C002900000049535F4144435F53414D504CC5
:10571C00455F54494D45284144435F53616D706C5E
:10572C006554696D6529000049535F4144435F45E9
:10573C0058545F494E4A45435F54524947284144A7
:10574C00435F45787465726E616C54726967496E1B
:10575C006A6563436F6E76290000000049535F4110
:10576C0044435F494E4A45435445445F52414E4B76
:10577C002852616E6B29000049535F4144435F49D5
:10578C004E4A45435445445F4C454E475448284C7B
:10579C00656E67746829000049535F4144435F4953
:1057AC004E4A45435445445F4348414E4E454C2870
:1057BC004144435F496E6A65637465644368616E16
:1057CC006E656C290000000049535F4144435F4FF4
:1057DC004646534554284F6666736574290000008D
:1057EC0049535F4144435F414E414C4F475F5741E2
:1057FC00544348444F47284144435F416E616C6FAA
:10580C00675761746368646F6729000049535F418F
:10581C0044435F5448524553484F4C4428486967A9
:10582C00685468726573686F6C64290049535F41F2
:10583C0044435F5448524553484F4C44284C6F776F
:10584C005468726573686F6C6429000049535F413A
:10585C0044435F4745545F464C4147284144435FAE
:10586C00464C41472900000049535F4144435F4384
:10587C004C4541525F464C4147284144435F464C9E
:10588C004147290049535F4144435F4745545F49B1
:10589C0054284144435F49542900000049535F4454
:1058AC004D415F414C4C5F50455249504828444D46
:1058BC0041795F4368616E6E656C78290000000069
:1058CC002E2E2F5372632F73746D333266313078F2
:1058DC005F646D612E63000049535F444D415F442A
:1058EC00495228444D415F496E6974537472756313
:1058FC00742D3E444D415F444952290049535F4445
:10590C004D415F4255464645525F53495A452844DE
:10591C004D415F496E69745374727563742D3E44C6
:10592C004D415F42756666657253697A6529000060
:10593C0049535F444D415F5045524950484552418F
:10594C004C5F494E435F535441544528444D415F8D
:10595C00496E69745374727563742D3E444D415F86
:10596C005065726970686572616C496E63290000DC
:10597C0049535F444D415F4D454D4F52595F494E20
:10598C00435F535441544528444D415F496E6974FB
:10599C005374727563742D3E444D415F4D656D6F4C
:1059AC007279496E6329000049535F444D415F5041
:1059BC0045524950484552414C5F444154415F5314
:1059CC00495A4528444D415F496E69745374727548
:1059DC0063742D3E444D415F506572697068657209
:1059EC00616C4461746153697A65290049535F4461
:1059FC004D415F4D454D4F52595F444154415F53AA
:105A0C00495A4528444D415F496E69745374727507
:105A1C0063742D3E444D415F4D656D6F72794461E9
:105A2C00746153697A65290049535F444D415F4D58
:105A3C004F444528444D415F496E697453747275E7
:105A4C0063742D3E444D415F4D6F64652900000029
:105A5C0049535F444D415F5052494F524954592864
:105A6C00444D415F496E69745374727563742D3E75
:105A7C00444D415F5072696F72697479290000005E
:105A8C0049535F444D415F4D324D5F535441544532
:105A9C0028444D415F496E69745374727563742D5B
:105AAC003E444D415F4D324D2900000049535F4645
:105ABC00554E4354494F4E414C5F53544154452825
:105ACC004E657753746174652900000049535F4437
